:100000000C9434000C9451000C9451000C94510049
:100010000C9451000C9451000C9451000C9451001C
:100020000C9451000C9451000C9451000C94C60B8C
:100030000C9451000C9451000C94E90B0C94510059
:100040000C9451000C9451000C9451000C945100EC
:100050000C9451000C9451000C9451000C945100DC
:100060000C9451000C94510011241FBECFEFD4E02A
:10007000DEBFCDBF11E0A0E0B1E0E8EEF0E202C0EB
:1000800005900D92AE30B107D9F722E0AEE0B1E0B5
:1000900001C01D92AB38B207E1F70E94240B0C940B
:1000A00072100C940000FF920F931F93CF93DF9375
:1000B000CDB7DEB7D2500FB6F894DEBF0FBECDBFBE
:1000C0000E94BC0D6F3F71058105910508F4C8C001
:1000D000E0910601F0910701AE014F5F5F4F60E0D4
:1000E00070E0CB010995F82E8111BDC08981893E50
:1000F00011F18B3E01F1C150DE4F88819981CF5FB4
:10010000D14085359A4A09F0B1C0C953DE4F6881A4
:1001100079818A819B81C75CD140E0910601F09191
:100120000701AE014F5F5F4F09958981893E19F044
:100130008B3E09F09EC08F89988D009799F01092A0
:100140004501909347018093460182E090E0A0E052
:10015000B0E080934E0190934F01A0935001B09373
:10016000510115C081E0809345018DA19EA190931E
:100170004701809346018DA59EA5AFA5B8A98093A0
:100180004E0190934F01A0935001B09351018C8583
:100190009D8590934D0180934C018E8590E09093C6
:1001A0002D0180932C018F8598890D8D1E8D2F8DAB
:1001B00038A1080F191F211D311D00933201109322
:1001C000330120933401309335014A895B8960E023
:1001D00070E0409328015093290160932A017093A5
:1001E0002B01440F551F661F771F440F551F661FB5
:1001F000771F440F551F661F771F440F551F661F3B
:10020000771F452F562F672F77274093480150932C
:10021000490160934A0170934B01A989E09146011D
:10022000F0914701AE9FC001AF9F900D1124080FC0
:10023000191F211D311D00932401109325012093C6
:10024000260130932701400F511F621F731F4093F7
:100250002E0150932F0160933001709331010BC038
:10026000FF24F39408C0FF24F39405C0FF24F39403
:1002700002C0FF24F3948F2DDE5F0FB6F894DEBF2B
:100280000FBECDBFDF91CF911F910F91FF900895C9
:10029000CF92DF92EF92FF92CF93DF93E901C0906C
:1002A0002E01D0902F01E0903001F0903101C40E6A
:1002B000D51EE11CF11C9B01AC0122503109410902
:1002C0005109A0912C01B0912D010E942A0F6C0DB3
:1002D0007D1D8E1D9F1DE0910601F0910701AE016D
:1002E000099591E0811101C090E0892FDF91CF91B4
:1002F000FF90EF90DF90CF900895CF92DF92EF9232
:10030000FF920F931F93CF93DF93CDB7DEB7D250F9
:100310000FB6F894DEBF0FBECDBF6B017C0180919C
:100320004501882359F0D701C601689416F8B6959F
:10033000A795979587951694D1F704C0BB27AF2D45
:100340009E2D8D2D02E0C016D104E104F104E0F1F0
:100350004091320150913301609134017091350127
:100360008C019D01040F151F261F371FC901B801FD
:10037000E0910601F0910701AE014F5F5F4F0995D3
:10038000811127C080914501882389F0E894C7F83E
:10039000DD24EE24FF24CC0CDD1CCC0CDD1CFE0186
:1003A000EC0DFD1D618172818381948116C0DD2475
:1003B000EE24FF24CC0CDD1CFE01EC0DFD1D618143
:1003C000728180E090E009C068EF7FEF8FEF9FE0DF
:1003D00004C068EF7FEF8FEF9FE0DE5F0FB6F89409
:1003E000DEBF0FBECDBFDF91CF911F910F91FF9068
:1003F000EF90DF90CF900895CF93DF93FC01DB0166
:10040000CB01AF0128E0EC013991CE01EA0139932B
:10041000AE012150C1F718968C91189780871996D4
:100420008C91199781871A968C911A9782871B96BF
:100430008C911B9783871C968C911C9784871D96A3
:100440008C911D9785871E968C911E9786871F9687
:100450008C911F97878750968C915097808B5196DF
:100460008C915197818B52968C915297828B539697
:100470008C915397838B54968D919C915597958B26
:10048000848B56968C915697868B57968C9157975E
:10049000878B58968C915897808F59968C91599745
:1004A000818F5A968D919C915B97938F828F5C96EA
:1004B0004D915D916D917C915F97448F558F668FC3
:1004C000778FDF91CF910895CF92DF92EF92FF92D5
:1004D000CF93DF93EC016A017B01672F7727882791
:1004E0009927CE010E946410B70188279927CE0171
:1004F00001960E94641099278F2D7E2D6D2DCE01BF
:1005000002960E9464106C2DCE0103960E94641026
:10051000DF91CF91FF90EF90DF90CF900895CF9231
:10052000DF92EF92FF92CF93DF93EC010E945C1079
:10053000C82ED12CE12CF12CFE2CED2CDC2CCC2463
:10054000CE0101960E945C10C80ED11CE11CF11C6A
:10055000FE2CED2CDC2CCC24CE0102960E945C10EB
:10056000C80ED11CE11CF11CFE2CED2CDC2CCC2483
:10057000CE0103960E945C10A7019601280F311D41
:10058000411D511DCA01B901DF91CF91FF90EF903C
:10059000DF90CF9008952F923F924F925F926F928B
:1005A0007F928F929F92AF92BF92CF92DF92EF9203
:1005B000FF920F931F93CF93DF934B015C016A016E
:1005C000611571058105910511F0212C8BC0809179
:1005D00045018111FACF80E092E00E94350F7C0145
:1005E000009709F425C18091480190914901A0919B
:1005F0004A01B0914B01892B8A2B8B2B09F46DC0DA
:1006000000E010E09801B12C912CA12C80912401E4
:1006100090912501A0912601B0912701BC01CD0147
:10062000600F711F821F931FE0910601F091070177
:10063000A7010995882329F0C7010E94CD0F21E069
:10064000FEC0E701092D1A2D88818E3261F18823C1
:1006500051F1853E41F1D701A00FB11F1B968C913E
:10066000282F227081FD1FC084FF1DC0D6018D91EF
:100670009C918115B2E09B0709F4E1C04C895D892A
:1006800060E070E0BA01552744272A8D3B8D420F68
:10069000531F611D711D0E946402F60180819181CA
:1006A000049691838083005E1F4FA0960115F2E0AF
:1006B0001F0751F6B3940B2D10E020E030E080913D
:1006C000480190914901A0914A01B0914B0108174E
:1006D00019072A073B0708F499CFC7010E94CD0FDD
:1006E00020E0ADC0A0912C01B0912D01A501940195
:1006F00022503109410951090E942A0F00912E010F
:1007000010912F0120913001309131012B013C01DA
:10071000400E511E621E731E80E092E00E94350F53
:100720007C01009709F486C080912C0190912D01E5
:10073000892B09F458C0312CE0910601F091070192
:10074000A701C301B201630D711D811D911D0995A2
:10075000882329F0C7010E94CD0F21E070C0E70176
:10076000022D10E088818E3261F1882351F1853E9F
:1007700041F1D701A00FB11F1B968C91282F227039
:1007800081FD1FC084FF1DC0D6018D919C918115F4
:10079000B2E09B0709F453C04C895D8960E070E0CA
:1007A000BA01552744272A8D3B8D420F531F611DE7
:1007B000711D0E946402F6018081918104969183EB
:1007C0008083005E1F4FA0960115F2E01F0751F6CF
:1007D0003394232D30E080912C0190912D01281726
:1007E000390708F4A9CFC7010E94CD0FC501B40194
:1007F0000E947D014B015C016F3F3FEF7307830750
:100800003FE09307C9F088EF88168FEF9806A80697
:100810008FE0B80699F080914501811163CFAFEF69
:100820008A169A06A104B10409F05CCF20E007C043
:1008300021E005C021E003C020E001C020E0822FBC
:10084000DF91CF911F910F91FF90EF90DF90CF90AC
:10085000BF90AF909F908F907F906F905F904F90E0
:100860003F902F900895EF92FF920F931F93CF9395
:10087000DF9300D0CDB7DEB780914501882369F0C2
:1008800040914E0150914F01609150017091510182
:1008900080E090E00E94640207C040E050E0BA01AE
:1008A00080E090E00E9464024FEF5FEFBA0184E0C5
:1008B00090E00E94640284E090E09A83898300E0E3
:1008C00010E0A895C8010E948F026F3F2FEF7207BA
:1008D0008207920729F1AE014F5F5F4F0E94CB0262
:1008E000E980FA80C7010E948F026F3F7F4F8F4FD0
:1008F0009F4F31F04FEF5FEFBA01C7010E946402D2
:1009000089819A818115924041F44FEF5FEFBA01DE
:100910008CEF91E00E94640203C00C5F1F4FD1CFA7
:1009200080E00F900F90DF91CF911F910F91FF907A
:10093000EF9008952F923F924F925F926F927F9225
:100940008F929F92AF92BF92CF92DF92EF92FF92DF
:100950000F931F93CF93DF93CDB7DEB768970FB692
:10096000F894DEBF0FBECDBF9A8B898B7F876E87D1
:100970005C8B4B8B1D861C861A861986212C0AEFF0
:100980000B87288A1D8A1E8A06C00C851D850C5F70
:100990001F4F1D870C87A8958C859D850E948F020F
:1009A0006D837E838F8398876F3F1FEF7107810769
:1009B000910709F426C2672B682B692B19F0612C6B
:1009C000312CFAC0809145018111F9CF80E092E08D
:1009D0000E94350F4C01009709F420C28091480114
:1009E00090914901A0914A01B0914B01892B8A2B2A
:1009F0008B2B09F4DDC080E090E0A0E0B0E0712C2A
:100A000054012BE0A20EB11C64013EEFD31A612CFD
:100A100049845A8440912401509125016091260116
:100A2000709127018C019D01040F151F261F371F90
:100A3000C901B801E0910601F0910701A4010995EF
:100A4000882331F0C4010E94CD0F332433941EC299
:100A500085019A828982E980FA80D7018C918E3251
:100A600009F485C0882309F482C0853E09F47FC05B
:100A7000F80120812F3009F47AC0F22FF2703F2E56
:100A800021FD75C0F801339720812D3409F06FC026
:100A900031962081203509F06AC0319680818333F8
:100AA00009F065C0B70189899A890E94FC01E1E0DB
:100AB000AB89BC89EC9380911F0181114AC0D70199
:100AC0008C91803309F0B2C1E981FA813196262DEB
:100AD00049815A812F5F81918033E1F35A834983A1
:100AE00080538A3048F5283058F501C0262DF7018B
:100AF000E20FF11D308180ED830F8A3018F580E020
:100B000090E069817A81AC01440F551F880F991FCD
:100B1000880F991F880F991F840F951F830F911DB0
:100B2000C0978A3F910508F094C186C1283058F3D8
:100B30007A8369838AEF09C08AEF283028F405C0D8
:100B40008AEF03C080E001C08AEFF201E457FE4F54
:100B50008083BFEF4B1A5B0AEE85FF858081918110
:100B60008415950521F4C4010E94CD0F8FC1298100
:100B70003A81205E3F4F3A832983005E1F4F2C1538
:100B80003D0509F068CF7394872D90E0A0E0B0E0B8
:100B9000409148015091490160914A0170914B0187
:100BA00084179507A607B70708F434CF5A864986F5
:100BB000C4010E94CD0FE9CEA0912C01B0912D016E
:100BC0002D813E814F8158852250310941095109BB
:100BD0000E942A0F00912E0110912F0120913001C7
:100BE000309131014B015C01800E911EA21EB31E9B
:100BF00080E092E00E94350F2C01009709F411C1AA
:100C000080912C0190912D01892B09F4D0C0762C74
:100C10008201055F1F4F62013EEFD31A89829A82DB
:100C2000AB82BC8248010889E0910601F09107017E
:100C3000A20169817A818B819C81670D711D811D63
:100C4000911D0995882331F0C2010E94CD0F3324F4
:100C500033941CC17401588E4F8AAF88B88CD5016B
:100C60008C918E3209F489C0882309F486C0853EB0
:100C700009F483C0F70120812F3009F47EC0122FC0
:100C8000127021FD7AC0339720812D3409F075C090
:100C900031962081203509F070C0319680818333F0
:100CA00009F06BC0B50189899A890E94FC01809185
:100CB0001F0181114BC0D5018C91803309F0CEC04A
:100CC000EF89F88D3196232D4F89588D2F5F8191B3
:100CD0008033E1F3588F4F8B80538A3048F52830AA
:100CE00058F501C0232DF501E20FF11D308180ED93
:100CF000830F8A3018F58D899E896F89788DAC01B4
:100D0000440F551F880F991F880F991F880F991F2F
:100D1000840F951F830F911DC0978A3F910508F09E
:100D2000B0C0A2C0283058F3788F6F8B8B8509C074
:100D30008B85283030F004C08B8503C08D8901C0BD
:100D40008B85E985FA85E457FE4F808321E0EB89A6
:100D5000FC89208389859A8501969A878987AE8543
:100D6000BF858D919C91E985FA858E179F0729F49F
:100D7000312EC2010E94CD0F89C02F89388D205E8F
:100D80003F4F388F2F8B30E2E30EF11C8F89988D07
:100D90008C159D0509F061CF7394272D30E080916B
:100DA0002C0190912D012817390708F43DCFC2017D
:100DB0000E94CD0F6D817E818F8198850E947D017B
:100DC0006D837E838F8398876F3FAFEF7A078A07A3
:100DD000AFE09A0709F4D9CD683F7F4F8F4F9F400E
:100DE00009F4D3CD809145018111E6CE0D811E819C
:100DF0002F8138850F3F1F4F2105310509F0DCCECB
:100E0000C4CDAE85BF858D919C911197892B61F4DE
:100E100009851A850D931C93312C38C033243394E3
:100E200035C03324339432C0312C30C080538A30E3
:100E300008F45CCE8AEF89CE2F5FF701E20FF11D37
:100E4000308140ED430F4A3008F470CE7A836983D5
:100E500074CE7A8369832F5F8AEF6FCE80538A3096
:100E600008F440CF8B856DCF2F5FF501E20FF11DA8
:100E7000308140ED430F4A3008F454CF788F6F8BA8
:100E800058CF788F6F8B2F5F8B8553CF832D6896CC
:100E90000FB6F894DEBF0FBECDBFDF91CF911F918B
:100EA0000F91FF90EF90DF90CF90BF90AF909F9009
:100EB0008F907F906F905F904F903F902F9008950C
:100EC000CF93DF9300D000D0CDB7DEB719821A825E
:100ED0001B821C828AEF90E00E94350F10925C0109
:100EE00020E030E0F901E457FE4F60816A3F60F492
:100EF000F901E457FE4F70816A81671728F4F90100
:100F0000E457FE4F40814A832F5F3F4F2A3F310510
:100F100049F72AEF20935C0121E02C83198270E0CD
:100F200060E0A1E01FC0A895272F362FF901E457F4
:100F3000FE4F50814C81541308C04B81FC01E40FDB
:100F4000F11D20834B814F5F4B832F5F3F4F2A3F23
:100F5000310561F72C812F5F2C833C812A81231777
:100F600008F4A98329812223F1F210925C0120E088
:100F700030E0F901E457FE4F40814A3F41F44B8194
:100F8000FC01E40FF11D20834B814F5F4B832F5FEA
:100F90003F4F2A3F310569F710925C012B812223D4
:100FA000A9F040E0242F30E0FC01E20FF31F508154
:100FB0005F5FF901E457FE4F508321E0240F3B812E
:100FC000231710F4422FEECF20935C010E94CD0F27
:100FD0000F900F900F900F90DF91CF910895AF92E7
:100FE000BF92DF92EF92FF920F931F93CF93DF9305
:100FF00024C0329BFECF109257011092560180E020
:101000000E94830E809166019091670101969093F2
:101010006701809366018091560190915701019676
:101020009093570180935601809748F38091660111
:10103000909167018F3F974039F0809166019091C0
:10104000670181159840A8F2A8950E948A0EE09148
:101050000A01F0910B01E557FE4F808190E09093DB
:101060001E0180931D0148E551E06DE171E088E6C5
:1010700091E00E949A0480917C0190917D01A0E012
:10108000B0E0DC019927882720918201309183010B
:10109000820F931FA11DB11D8093520190935301A4
:1010A000A0935401B09355018091840190918501E2
:1010B000A0918601B0918701AC01BD01032E39E0FA
:1010C00076956795579547953A95D1F7302D40938A
:1010D00088015093890160938A0170938B0191700C
:1010E00090935B0180935A0110925C0110925E0113
:1010F00010925F011092600110926101DD24D3947F
:101100000F2EFCE2EF2EF1E0FF2EF02DE8C1A895A6
:1011100080E092E00E94350F9C01909363018093E0
:10112000620160915201709153018091540190913C
:101130005501A5010E9448011092670110926601B5
:10114000A89580911801813031F4109218010E9405
:10115000C40E811118C2329B7FC08091590188232F
:1011600009F47AC0A89510921901109257011092B3
:101170005601E0916201F0916301809166019091C6
:101180006701E80FF91F80810E94830E809166013C
:101190009091670101969093670180936601809119
:1011A00056019091570101969093570180935601F3
:1011B0008097F8F240915E0150915F01609160016B
:1011C000709161018091880190918901A0918A01BB
:1011D000B0918B01481759076A077B0781F420916A
:1011E00066013091670180915A0190915B01281747
:1011F000390728F0F701808180935C0152C180910A
:101200006601909167018F3F914021F480915901CF
:10121000811147C120915D0139B1822F90E035FBEA
:10122000002700F910E080179107B1F04D9B14C022
:1012300080911C01811110C080911601873061F4EA
:1012400021110AC081E08093170180916201909181
:1012500063010E94CD0F97C120915D0139B1822FAA
:1012600090E035FB332730F9C32F30E0D32F8C17B4
:101270009D0709F476C04D9B74C080911C018111BB
:1012800070C080911601853069F521116AC081E036
:1012900080931C01109221011092200180910A017B
:1012A00090910B01019690930B0180930A0120917C
:1012B0006401309165012817390730F481E090E02E
:1012C00090930B0180930A018091620190916301D8
:1012D0000E94CD0F81E080931C0110922101109299
:1012E000200151C18330B1F421113BC0D0921C01C7
:1012F000109221011092200180915901882319F048
:101300001092590102C0D0925901109221011092FD
:10131000200127C0873071F4211123C081E0809320
:1013200059018093170180916201909163010E949D
:10133000CD0F29C18630A9F4211113C0D0921C0110
:10134000109221011092200180915901882319F0F7
:101350001092590102C0D0925901109221011092AD
:101360002001499927C04A9925C080911301811114
:1013700021C080910801909109018A329A4249F472
:1013800082E192E10E94AF0E9093090180930801DF
:1013900008C08AE29AE20E94AF0E909309018093FE
:1013A0000801109215011092140110920E01D092B2
:1013B00013016FC0499907C01092150110921401D2
:1013C000D0920F0166C04A9907C010921501109281
:1013D0001401D09210015DC0809112018823A1F107
:1013E0001092120110920F0180915E0190915F01A5
:1013F000A0916001B09161014F97A105B105A8F4DA
:1014000080910A0190910B018130910549F48091FE
:1014100064019091650190930B0180930A0105C0CE
:10142000019790930B0180930A0110925E01109234
:101430005F011092600110926101809162019091B0
:1014400063010E94CD0F9FC080911101882309F193
:10145000109211011092100180910A0190910B01DC
:10146000019690930B0180930A01209164013091C1
:1014700065012817390730F481E090E090930B0163
:1014800080930A0180916201909163010E94CD0FC7
:101490007AC080916601909167018115924008F4AD
:1014A0004FCE80915E0190915F01A0916001B0915B
:1014B00061010196A11DB11D80935E0190935F01B2
:1014C000A0936001B09361018091620190916301EA
:1014D0000E94CD0F80915C018F5F80935C01A09092
:1014E0005C01B12C80912C0190912D01A816B906B8
:1014F00008F40DCE10925C0160915201709153017D
:1015000080915401909155010E947D016093520198
:101510007093530180935401909355016F3F2FEFC7
:10152000720782072FE0920781F0683F3FEF730751
:1015300083073FE0930749F0209145012111CFCF68
:101540006F3F7F4F8105910551F6A89581E080930B
:101550001A01809116018630B1F480910A019091B0
:101560000B01019690930B0180930A012091640175
:10157000309165012817390730F481E090E09093AD
:101580000B0180930A0180E090E0DF91CF911F91E1
:101590000F91FF90EF90DF90BF90AF900895109261
:1015A00067011092660180910C01813029F410923C
:1015B0000C01109259011FC080911A01882339F043
:1015C00080911601853019F41092590114C0809150
:1015D0001601873039F480911701811109C01092EA
:1015E000590109C0863021F480915901882319F0EE
:1015F00081E08093590110921A0110921701A89569
:101600000E94EF070895F89410928000E1E8F0E05E
:1016100025E0208382E796E09093890080938800FC
:1016200082E084BD25BD91EC97BD80936E008081E2
:1016300088608083808184608083EFE6F0E0808131
:101640008260808378940895CF9328E288E190E0C7
:101650000FB6F894A895809360000FBE20936000A9
:10166000A89580E090E02FEFFC01E457FE4F208327
:1016700001968A3F9105C1F78AEF80935C010E9431
:10168000030B8AB11AB88BB18FEF8BB95D981092AA
:1016900066002FEF80E792E0215080409040E1F714
:1016A00000C00000A8950E948A0C2FEF80E792E00E
:1016B000215080409040E1F700C00000A8950E94B2
:1016C000C40E81115FC02FEF80E792E0215080406F
:1016D0009040E1F700C00000A895C6E004C0A895BE
:1016E000C15009F4FFCF0E94E30C8111F8CF8FEFB6
:1016F000809366002FEF80E792E021508040904079
:10170000E1F700C00000A8950E94530081113AC083
:10171000A8950E943304A89548E551E064E671E07D
:1017200088E691E00E949A0481E080931F01A895C9
:101730000E9460078091640190916501009711F10A
:1017400029B149B14871469546954695207430E0D7
:101750003595279535952795359527953595279571
:10176000242B2093160139B135FB332730F9309300
:101770005D01253021F490930B0180930A010E94B2
:10178000CF0AFDCF80E090E0CF9108951F920F9295
:101790000FB60F9211248F9380915901813079F403
:1017A00080911901843120F48F5F8093190107C063
:1017B000843129F481E0809318011092190110926C
:1017C0008500109284008F910F900FBE0F901F9094
:1017D00018951F920F920FB60F9211242F933F93DB
:1017E0004F938F939F9316BC80912001909121017C
:1017F0000196909321018093200180910E018B30FE
:10180000E8F180911401909115018A309105A8F4B6
:101810000196909315018093140180910F01882304
:1018200021F180911001811120C049991EC01092B0
:101830000F0181E08093120118C00A97B1F4109251
:10184000130180910F01882319F081E08093120128
:1018500080911001882319F081E0809311018BE0C1
:1018600090E09093150180931401809113018823D7
:1018700041F010920F011092100103C08F5F80930E
:101880000E018091200190912101499701F510925C
:101890001C01109221011092200129B149B1487117
:1018A000469546954695207430E0C90195958795F3
:1018B000959587959595879595958795842B809394
:1018C000160189B185FB882780F980935D019F917E
:1018D0008F914F913F912F910F900FBE0F901F90BE
:1018E000189583E58CBD8DB58E7F8DBD089580E5FF
:1018F0008CBD8DB581608DBD08958EBD0DB407FE84
:10190000FDCF8EB508958FEF8EBD0DB407FEFDCFD0
:101910008EB5089584B18C6284B90E94710C2A9AA4
:101920000895FF920F931F93CF93DF93D82FC42F67
:10193000152F062FF72E0E94830C2A988D2F806476
:101940000E947D0C8F2D0E947D0C802F0E947D0CAB
:10195000812F0E947D0C8C2F0E947D0CD83021F4A9
:1019600087E80E947D0C07C085E90E947D0C03C0BA
:10197000C15011F41BC0C0E00E94830C8F3FC1F323
:10198000C82F811115C0DA33A1F40E94830C86FFA1
:1019900004C081E080931B0102C010921B010E94D1
:1019A000830C0E94830C0E94830C03C0C82F01C0CB
:1019B000C82F2A9A0E94830C8C2FDF91CF911F9100
:1019C0000F91FF9008951F93CF93DF930E94710CA6
:1019D000DFEF1AE0C12F0E94830CC150E1F740E015
:1019E00050E0BA0180E00E94910CD15009F46DC022
:1019F000813081F70E94830C0E94830C4AEA51E0F7
:101A000060E070E088E00E94910CD0EF0EC04AEADE
:101A100051E060E070E088E00E94910CD15029F420
:101A200081E08093860211E003C0813081F712E0EB
:101A300040E050E0BA0187E30E94910C40E050E0A2
:101A400060E070E489E20E94910CD0EF0FC040E0AA
:101A500050E0BA0187E30E94910C40E050E060E062
:101A600070E489E20E94910CD15089F18111EFCF8D
:101A700010921B011230C9F42CC040E050E0BA01B2
:101A80008AE30E94910CD15019F41092860202C090
:101A90008111F3CF80911B01813021F482E080938A
:101AA000860203C083E0809386020E94770C40E0A8
:101AB00050E0BA018BE30E94910C40E052E060E0FC
:101AC00070E080E10E94910C0CC0C1E00AC0C1E04E
:101AD00008C040E050E0BA018AE30E94910CDEEFBA
:101AE000D7CF8C2FDF91CF911F9108950F931F9324
:101AF000CF93DF93EA0120911B0121110FC0AB01AD
:101B0000BC01032E39E0440F551F661F771F3A951D
:101B1000D1F7302D81E10E94910C05C0AB01BC01D1
:101B200081E10E94910C811122C02A9800E010E00E
:101B300008C0015011090115110519F42A9A81E014
:101B400016C00E94830C8E3FA1F78E01DE5F0E94BB
:101B5000830CF80181938F01EC17FD07C1F70E94F8
:101B6000830C0E94830C2A9A0E94830C80E0DF91F0
:101B7000CF911F910F910895EF92FF920F931F93B2
:101B8000CF93DF93CDB7DEB760970FB6F894DEBF83
:101B90000FBECDBF40E050E0BA0189E00E94910C39
:101BA000882329F0682F70E080E090E068C02A98D0
:101BB00000E010E00BC0015011090115110531F4CE
:101BC0002A9A61E070E080E090E059C00E94830CA6
:101BD0008E3F89F78E010F5F1F4F7E0181E1E80E76
:101BE000F11C0E94830CF80181938F01EE15FF0513
:101BF000C1F70E94830C0E94830C0E94830C2A9AD6
:101C00000E94830C8F81837090E0982F882728850D
:101C1000820F911D880F991F880F991FA985A29582
:101C2000A695A695A370B0E02A852370220F4B8558
:101C3000441F4427441F4E5F420F39F021E030E03B
:101C4000220F331F4150E1F702C021E030E011962E
:101C5000A80FB91F0E941B0F9B01AC018E818F70D2
:101C600090E0009741F0A1E0B0E0AA0FBB1F019700
:101C70000097D9F702C0A1E0B0E00E942A0F609659
:101C80000FB6F894DEBF0FBECDBFDF91CF911F918D
:101C90000F91FF90EF9008951F93CF93DF93182F2C
:101CA000D62FC72F419A439882E090E00E947D0C86
:101CB000812F90E00E947D0C8C2F90E00E947D0C83
:101CC0008D2F9C2F0E947D0C439ADF91CF911F9105
:101CD0000895CF93DF93C82F419A439883E090E013
:101CE0000E947D0C8C2F90E00E947D0C0E94830C42
:101CF000D82F80E0C82F0E94830C439A8C0F9D1F21
:101D0000DF91CF910895419890E00E947D0C419A17
:101D1000439A089564E078E080E00E944C0E87E8E2
:101D200093E10197F1F700C0000008950F931F930E
:101D3000CF93DF93082FEB011CE006C0BE01802F7C
:101D40000E944C0E115031F0802F0E94690E8C17AA
:101D50009D07A1F7DF91CF911F910F910895CF9328
:101D6000DF93EC01BC018BE00E94960ECE01DF9167
:101D7000CF910895BC0182E00E94960E0895BC01A7
:101D800080E00E94960E0895CF93A89587B18B604E
:101D900087B93A98439A419A409A0E94710C87E811
:101DA00093E10197F1F700C00000A895CCE007C0CF
:101DB00060E070EC83E00E944C0EC150C9F183E0FA
:101DC0000E94690E8115904C99F787E893E101977D
:101DD000F1F700C000006AE070E085E00E944C0E60
:101DE00065E47CEA85E00E944C0E8AE29AE20E9459
:101DF000AF0E80E090E80E94BA0E80E098E00E946A
:101E0000BF0EA89587E893E10197F1F700C00000A5
:101E100064E078E080E00E944C0E8FE097E201974A
:101E2000F1F700C00000A8950E94770C80E001C087
:101E300081E0CF910895A29FB001B39FC001A39FFD
:101E4000700D811D1124911DB29F700D811D1124F3
:101E5000911D08950E941B0FA59F900DB49F900D9A
:101E6000A49F800D911D11240895CF93DF9382309C
:101E7000910510F482E090E0E0918902F0918A02ED
:101E800020E030E0A0E0B0E0309739F140815181AE
:101E900048175907B8F04817590771F482819381A0
:101EA000109729F013969C938E9312972CC09093C1
:101EB0008A028093890227C02115310531F042172B
:101EC000530718F0A901DB0101C0EF019A01BD0120
:101ED000DF010280F381E02DD7CF21153105F9F024
:101EE000281B390B2430310580F48A819B816115D0
:101EF000710521F0FB019383828304C090938A02D1
:101F000080938902FE01329644C0FE01E20FF31F66
:101F10008193919322503109398328833AC02091CB
:101F2000870230918802232B41F4209102013091E5
:101F300003013093880220938702209100013091A1
:101F400001012115310541F42DB73EB7409104013F
:101F500050910501241B350BE0918702F091880216
:101F6000E217F307A0F42E1B3F0B2817390778F070
:101F7000AC014E5F5F4F2417350748F04E0F5F1FCF
:101F800050938802409387028193919302C0E0E0CE
:101F9000F0E0CF01DF91CF910895CF93DF930097C9
:101FA00009F487C0FC01329713821282C091890222
:101FB000D0918A02209781F420813181280F391F26
:101FC00080918702909188028217930779F5F093A8
:101FD0008802E09387026DC0DE0120E030E0AE179A
:101FE000BF0750F412964D915C9113979D014115D6
:101FF000510509F1DA01F3CFB383A2834081518106
:10200000840F951F8A179B0771F48D919C911197EE
:10201000840F951F02969183808312968D919C91D7
:102020001397938382832115310529F4F0938A0253
:10203000E09389023EC0D9011396FC93EE93129768
:102040004D915D91A40FB51FEA17FB0779F48081CC
:102050009181840F951F0296D90111969C938E93BE
:102060008281938113969C938E931297E0E0F0E027
:102070008A819B81009719F0FE01EC01F9CFCE0116
:10208000029628813981820F931F20918702309117
:1020900088022817390769F4309729F410928A02C8
:1020A0001092890202C013821282D0938802C093D8
:1020B0008702DF91CF910895F999FECF92BD81BD3E
:1020C000F89A992780B50895262FF999FECF1FBA5F
:1020D00092BD81BD20BD0FB6F894FA9AF99A0FBE51
:0820E00001960895F894FFCF6A
:0E20E80000008B022000760D2A2A0100010064
:00000001FF
